:020000040000FA
:1000000098110020950400009D0400009F0400004A
:10001000A1040000A3040000A504000000000000EB
:10002000000000000000000000000000A704000025
:10003000A904000000000000AB040000AD040000B3
:10004000AF040000B1040000B3040000B5040000D8
:10005000B7040000B9040000BB040000BD040000A8
:10006000BF040000C1040000000000000000000008
:100070000000000000000000000000000000000080
:100080000000000000000000000000000000000070
:100090000000000000000000000000000000000060
:1000A0000000000000000000000000000000000050
:1003C00000F002F800F056F80AA090E8000C824411
:1003D0008344AAF10107DA4501D100F04BF8AFF2EE
:1003E000090EBAE80F0013F0010F18BFFB1A43F013
:1003F00001031847E816000008170000103A24BF50
:1004000078C878C1FAD8520724BF30C830C144BF79
:1004100004680C60704700000023002400250026BB
:10042000103A28BF78C1FBD8520728BF30C148BF57
:100430000B607047702900F0EF80642900F0B080F5
:10044000752900F0AD80732900F0F8810020704715
:100450001FB501F0F6FA0348034900F0E7FC00F08D
:1004600023FA1FBD98010020980D002010B500F060
:1004700084FA10BDDFF80CD0FFF7EAFF01F0AAF80C
:1004800000F080FC9811002003B4FFF7EFFF03BCDD
:1004900000F03EFE0B4880470B480047FEE7FEE7B2
:1004A000FEE7FEE7FEE7FEE7FEE7FEE7FEE7FEE724
:1004B000FEE7FEE7FEE7FEE7FEE7FEE7FEE7FEE714
:1004C000FEE70000C5120000C10300000FB404499C
:1004D00010B503AA029800F0B5F910BC5DF814FB42
:1004E000900000202DE9F0410E46044600202062D5
:1004F0002046E168884730B3252805D0D4E901219A
:100500009047206A401CF2E7E168204600278847B0
:10051000050018D0A5F14100192802D820354FF464
:1005200000673246294620462760FFF783FF40B127
:10053000012804D0F61D26F007060836D8E7361D38
:10054000D6E72846DAE7206ABDE8F08170B50C46A8
:100550000546012A05D02878800600D5EA690023DF
:1005600002E0012305E05B1C934202D2E05C00281C
:10057000F9D1A869E618C01AA861286A1844286247
:100580002846AFF3008004E0D5E9012114F8010BFF
:100590009047B442F8D32846AFF3008070BD000006
:1005A0002DE9F0410646002410687529314616A54C
:1005B00010D0AFF30080002802DA404213A507E014
:1005C00031688A0701D512A502E0490704D511A5B3
:1005D000012401E0AFF3008000210A2206F1240784
:1005E00009E0B0FBF2FCB0FBF2F302FB1C00303080
:1005F00078541846491C0028F3D123462A46304631
:10060000BDE8F04100F0AFB8000000002D00000090
:100610002B00000020000000F0B4136802680824DA
:10062000C4610C4642F020020260110502D50E4A58
:100630007A4402E00C4A7A440E32002100F124058B
:1006400005E003F00F061B09965D6E54491C002B54
:10065000F7D105782D0703D5702C01D10123103275
:10066000F0BC00F080B800003914000010B5203A4A
:10067000C0F00B80B1E81850203AA0E81850B1E85B
:100680001850A0E81850BFF4F5AF5FEA027C24BF11
:10069000B1E81850A0E8185044BF18C918C0BDE808
:1006A00010405FEA827C24BF51F8043B40F8043BD1
:1006B00008BF7047D20728BF31F8023B48BF11F886
:1006C000012B28BF20F8023B48BF00F8012B7047E0
:1006D0004FF0013C50F8042B51F8043B9A4221D1D1
:1006E000A2EB0C03934313EACC1317D150F8042B5D
:1006F00051F8043B9A4215D1A2EB0C03934313EA41
:10070000CC130BD150F8042B51F8043B9A4209D179
:10071000A2EB0C03934313EACC13DBD04FF00000A1
:10072000704700BFD01A01BAB1FA81F101F0180187
:1007300022FA01F0CB40C1F12001DBB2C0B2C01AF5
:100740002CFA01F3D11A914311EAC311E6D1704793
:1007500010B500F089F8006810BD10B5044600F02F
:1007600083F8046010BD2DE9F0470D469946924686
:10077000044600F124080168880604D5E06921F0E8
:100780001001216000E00120A84201DD471B00E0CC
:100790000027A1697A1902EB0900081AA0612078E4
:1007A000C00602D42046AFF30080002608E0D4E95A
:1007B00001211AF806009047206A401C761C20622E
:1007C0004E45F4DB2078C0060AD52046AFF3008002
:1007D00006E0D4E9012130209047206A401C2062C5
:1007E000381EA7F10107F4DC07E0D4E9012118F86D
:1007F00005009047206A401C2062281EA5F10105D3
:10080000F3DC2046AFF300802078000602D50220FA
:10081000BDE8F0870120FBE710B5436913B1AFF3E2
:10082000008001E0FFF792FE012010BD127800F178
:1008300024010A7000224A700122EDE711684FF08E
:10084000FF32E9E7074B70B50D467B4400F015F821
:100850000446284600F024F810B14FF0FF3070BD78
:10086000204670BD690C0000004870473801002028
:1008700001694A1C02610878704700B58FB0CDE964
:1008800001310021059105497944CDE90310114654
:100890006846FFF727FE0FB000BD0000E5FFFFFF31
:1008A000007B00F08000704710B54248542100F0F2
:1008B00079FA4148542100F075FA4048542100F07B
:1008C00071FA3F493B483C4A3F4B08603D490A604A
:1008D0003A491960531C0365481C106501200865DE
:1008E0003B48344A39A1784400F0B0F920B938487F
:1008F00078440A3800F04FFA37482F4A35A1784437
:1009000000F0A4F920B9344878440A3800F043FADA
:1009100032482A4A2FA1784400F098F920B92F488C
:1009200078440A3800F037FA40232248DC000021DE
:10093000224600F067F920B125487844543800F089
:100940002AFA1D4822464023002100F05BF920B11D
:1009500021487844543800F01EFA184822461023E3
:10096000002100F04FF9002806D01C487844BDE86B
:100970001040563800F00FBA10BD104870B5006D29
:1009800020F001040B4800F0D7F90B4800F0D4F92F
:100990000A4800F0D1F909E0206D20F00105204659
:1009A00000F0CAF9204600F01BF82C46002CF3D1C9
:1009B00070BD00003C00002090000020E4000020FA
:1009C0000C00002010000020140000207200000025
:1009D0006C110000770000005B1100004B1100005B
:1009E00070B50446051F00F005FA0068002C14BF1E
:1009F000446870BD002C18BFAC423CBF2046646800
:100A0000F8D301680A18AA4218BF456003D12A68C2
:100A100005461144016028684119A1421CBF6C6061
:100A200070BD6168696021680844286070BD2DE967
:100A3000F04705460C46C86820F4201040F48000BA
:100A4000C860800602D5084600F021FBE06841F24C
:100A500082014FF0FF390140022903D0204600F007
:100A6000BFFAB5E000F42041B1F5004F0FD1C0034B
:100A700006D56168E06A884200D80846606006E0F2
:100A80002069E0626060606900F084FCA061A06899
:100A90000022EEB200280DDAE1688B050AD4C043CB
:100AA000A06041F490302260E0606068411C6160A9
:100AB0000670A5E0E0689046226040F40050E060D7
:100AC000206968BB606900F077FC012704F1240508
:100AD000A0B1A08910F4407F08D0E06900F0D5F9FA
:100AE000206118B1E06840F4006016E0E76125611C
:100AF000E06820F4407040F480600EE0E06900F0AF
:100B0000C4F900282061F1D0E06840F4006010F4DE
:100B1000407FE06002D140F48070E0602069606056
:100B2000E06825696FF0010AC1051FD56168E06AB8
:100B3000884200D80846411B04D02246284600F0CF
:100B400059FAF0BBE068010203D5E562C4E9015837
:100B500054E0691CE1626160E16940F48030491E43
:100B6000C4E9021030462E70BDE8F087010202D5BC
:100B700000F480320AE06068411C61600670E06841
:100B80000A2E40F48030E06006D00022E16A6068FE
:100B9000814203D90B4602E00122F7E70346A78909
:100BA0005B1B7F0503D4E7699F4200DDE2B1814210
:100BB00000D80146E5620F1AC4E90158002B09DD8F
:100BC00000E005E022461946284600F013FA08B175
:100BD0004846C9E747B1A069E5626560C01BA061EE
:100BE000E06840F01000E060E068000208D561684D
:100BF000A069E562491B08446560A0615046B3E7FF
:100C00003046B1E770B5C468A50713D0650211D4AA
:100C1000B2F5807F09D0B2F5007F06D0B2F5806FC3
:100C200008D1012300F1240106E05D1E6FF07F462C
:100C3000B54201D3012070BD0161C361416024F45C
:100C400070611143C160002070BD00002DE9F041CA
:100C50000C4607461646104600F06EF82078611CD8
:100C600061280AD0722802D077283CD102E0012501
:100C7000002405E00225042402E0082448F20205CD
:100C800011F8010B2B2806D0622809D011F8010CAD
:100C900074280AD00BE045F0030544F00204EFE7A6
:100CA00045F0040544F00104EAE744F01004384636
:100CB000214600F093FB411C15D000213161716089
:100CC0004FF40071F560F1617061200704D5304682
:100CD0000222002100F008F9306D40F0010030657B
:100CE0003046BDE8F0810020FBE72DE9F0410D46DC
:100CF0000646104C206DC10704D0410804D020F0F6
:100D00000104F7E722460EE0542000F0BEF8070089
:100D10000ED0206D47F0010108435421206538466C
:100D200000F040F83A4629463046BDE8F0418DE7EC
:100D30000020D6E73C0000202DE9F04704464FF0A4
:100D400000094FF0FF37C568D4E90486A80707D02B
:100D5000204600F079F9304600F009FB002802DA5D
:100D60003846BDE8F087280502D54046FFF738FE33
:100D70004C21204600F016F8206D20F0010020657F
:100D80004846EEE710B50446AFF300802046BDE8C4
:100D90001040FFF779BB10B500F0A0F9BDE8104096
:100DA00000F096B94FF0000200B5134694469646FF
:100DB000203922BFA0E80C50A0E80C50B1F120016E
:100DC000BFF4F7AF090728BFA0E80C5048BF0CC01C
:100DD0005DF804EB890028BF40F8042B08BF70477A
:100DE00048BF20F8022B11F0804F18BF00F8012BEC
:100DF000704700000048704740010020704770476E
:100E00007047704738B504460A460020694600F02E
:100E1000F4F9002808BF38BD02460099204600F0CA
:100E200085F9012038BD012000F0D4B9F8B500F0F3
:100E3000D9F9054600200C46102000BF0646A81927
:100E4000A0420DD932466946002000F0D6F90700CD
:100E500008BF00F0BFF90098A04218BF0546C419AA
:100E6000FFF7C8FF05600746F01D20F00700461990
:100E7000284600F054F9B44208BFF8BDA21B314621
:100E80003868BDE8F84000F051B970B50646FFF784
:100E9000B1FF056806F10B0020F00704B4429CBFC7
:100EA000002070BD2B466A68BAB11068A04210D30A
:100EB00004F1080188423CBF5068586007D351686C
:100EC000101941601168091B016058601460101D01
:100ED00070BD13465268002AE7D121462846FFF725
:100EE00091FF0028DED170BD2DE9F0410446164681
:100EF0000D464769007B80072ED0384600F05CFA2B
:100F000050BB3EB3012E02D0022E25D104E0204674
:100F100000F026F905441DE0384600F03BFAE16890
:100F2000002841F01001E16005DA204600F058F891
:100F30000120BDE8F081C9030BD56268E16A9142E6
:100F400000D81146A26911442269891A814200DD44
:100F500008460544002D01DA0220EAE7E16A6068EC
:100F6000E268814206D29103E06203D522F40031A7
:100F700041F01002A6690027AE4213DCE16A81420B
:100F800001D90B4600E0034603EB060C2369ACEBEA
:100F9000030CAC4506DD814201D98C4600E0844655
:100FA0009C4505D1A760276042F02000A5620DE0B6
:100FB000AD1BE669AE1B8142A66000D90846C01A87
:100FC000281A20605819606022F020000349084068
:100FD000E060002084F84870ABE70000BFCFD7FF87
:100FE000C16821F4001141F08001C16000218160DD
:100FF000016070472DE9F047814614460E464FF0D8
:10100000FF383248D5685769054209D03846A1698A
:1010100000F018FA002811DB2C48C0430540E560B9
:101020002B4632464946384600F022FAA16920F0A4
:101030000042B21A11440028A16103D02046FFF7F4
:10104000CFFF4046BDE8F08770B504460569C06A29
:101050006168884200D80846E16821F42011E16007
:10106000C90312D5A84208D02246411B2846FFF7E3
:10107000C1FF10B14FF0FF3070BD0020E562C4E940
:101080000150E06820F48030E060002070BD10B5B1
:101090000446C06820F02000E060A16AA069884290
:1010A0000DD02046FFF7D0FFE06820F4405040F01C
:1010B0001000E060A06AA0612069E062606044F214
:1010C0004001E0688843E06010BD000010000200AD
:1010D000002801D000F01CB87047000010B5014690
:1010E00002A000F05EF8012010BD000053494752F5
:1010F000545245443A2052656469726563743A20DB
:1011000063616E2774206F70656E3A2000000000E6
:1011100001491820ABBEFEE72600020070470021FF
:101120000160C0E901107047102070470346406815
:101130008C46002818BF88423CBF03464068F8D35D
:1011400018681844884207D00CF1030020F007000B
:10115000001D411A521A0146081D0A60FFF740BCE3
:1011600010B50146C268900703D0900607D5886A7B
:101170000AE0FFF779FB01210160881E10BD8B6931
:10118000486818440B69C01A91F848301BB191F8AF
:101190004910401A10BD1103FCD50028FADD401E8D
:1011A00010BD70B505460C460A2000E06D1C00F02D
:1011B00041F835B128780028F8D102E0641C00F02D
:1011C00039F814B120780028F8D1BDE870400A2021
:1011D00000F030B810B500F035F8BDE81040FFF76A
:1011E00077BF0000124B694600F580528A421A60B0
:1011F00001D8114670471960704730B50C4D6B46E9
:10120000A3F580532C6822449A420FD89B1A02F50A
:10121000805003EBD37302EB6303984200D9184666
:10122000C01D20F007020C60101B2A6030BD0000BA
:101230001800002008B569468DF800000320ABBEF9
:1012400008BD000010B5012805D0002103A0FFF75C
:10125000A8FF012010BD09A1F8E70000534947523B
:10126000544D454D3A204F7574206F662068656176
:1012700070206D656D6F7279000000003A2048653E
:101280006170206D656D6F727920636F7272757019
:10129000746564000A49096801F0010171B10849E7
:1012A0008039096801F0010141B100BF4FF0604190
:1012B00009680029FAD04FF06042107070470000B2
:1012C000800E00E007480849086007488030006841
:1012D00040F4700004498031086004480449086003
:1012E000704700000000000008ED00E040787D013C
:1012F0000800002000B52DED048BB0EE409AF0EE12
:10130000609A83B051EC190B00F05EFA41EC180BB7
:1013100018EE100A18EE901A8DED008B002818BFF9
:101320000120084320F00040C0F17F6000F1E04060
:10133000C00F14D019EE101A19EE900A8DED009B13
:10134000002918BF0121084320F00040C0F17F6050
:1013500000F1E040C00F04BF0120FFF7FEF9B0EE3E
:10136000480A03B0F0EE680ABDEC048B00BD0146EC
:101370006FF40040084420B1012804D0022806D1AF
:1013800003E0002070470020FCE70020FAE74FF060
:10139000FF30F7E701466FF40040084420B1012810
:1013A00004D0022806D103E0002070470020FCE7AB
:1013B0000020FAE70020F8E701466FF400400844F7
:1013C00020B1012804D0022806D103E00120704793
:1013D0000120FCE70120FAE70020F8E770B5044699
:1013E0000D4614B94FF0FF3070BD20783A281AD15D
:1013F0000EA12046FFF76CF910B948F20100F3E79F
:101400000CA12046FFF764F910B948F20200EBE79F
:101410000AA12046FFF75CF910B948F20300E3E7A0
:101420004FF0FF30E0E74FF0FF30DDE73A53544430
:10143000494E00003A5354444F5554003A535444D3
:101440004552520002466FF40040104420B101287A
:1014500005D0022809D105E04FF0FF3070474FF06A
:10146000FF30FBE74FF0FF30F8E74FF0FF30F5E7D4
:101470002DE9F04106460C46154698466FF40040AB
:10148000304420B1012806D0022811D10EE04FF0DF
:10149000FF30BDE8F08105E014F8017B384600F02C
:1014A00007F96D1E002DF7D10020F2E70020F0E7CC
:1014B0004FF0FF30EDE78A68002A01DCFFF7B7BA8A
:1014C000521E8A604A68C0B2531C4B60107070474D
:1014D00010B50A46012101604160022109E04B1E5E
:1014E00050F823408B1E50F82330234440F821301D
:1014F000491C9142F3D310BD70B52DED068B044607
:101500000D469FED180AB0EE408A00200BE054F81B
:101510002010494300EE101AB8EE400A30EE080AD7
:10152000B0EE408A401CA842F1D318EE100A00F039
:1015300017FA41EC1A0BB0EE4A0AF0EE6A0AFFF70E
:10154000D9FEB0EE409AF0EE609A51EC190B00F023
:10155000B5F808EE100ABDEEC80A10EE100ABDEC90
:10156000068B70BD0000000070B504460D4629468C
:101570000AA0FEF7ABFF002605E054F8261011A0E4
:10158000FEF7A4FF761C681EB042F6D804EB850077
:1015900050F8041C0DA0FEF799FF70BD546865203B
:1015A0006669727374202564206E756D626572734E
:1015B000206F6620746865206172726179206172A3
:1015C000653A0A0025642C202000000025642E0ABC
:1015D0000000000088B0202214A16846FFF746F8FA
:1015E00069461AA0FEF772FF1F4920A0FEF76EFFA2
:1015F000254926A0FEF76AFF4FF0FF302A49086010
:10160000084602682948FEF761FF08211648FFF7DF
:101610005FFF08211448FFF76FFF1B4908600A218C
:101620001148FFF7A1FF00BFFEE7000043616D65B1
:10163000726F6E20537461726B2026204A61636F53
:1016400062204761747475736F0000005265737592
:101650006C7473206F66204C6162312066726F6D0E
:101660002025732E0A0000001C0000206669626FAE
:101670005F617272617920616464726573733A208C
:10168000307825700A000000000000206575636C4A
:101690005F6E6F726D20616464726573733A20309F
:1016A0007825700A0000000004000020981A00004D
:1016B00000B503461846FFF7EDFD00BD21F00042DE
:1016C000A2F16052B2F5801F01F0004328BFD2F1B1
:1016D0007F6C0BD95FEA001C43EAC20242EB5070F8
:1016E00018BF704728BF20F001007047B2F5801F77
:1016F000BCBF184670474FEA410C1CF5001F02D2D0
:10170000084600F0A3B970B500F009F800000089A0
:10171000FFF7F6BF4FF00040A0F5800070470EF1D4
:10172000020E2EF0030E5EF8046B364205D4012A39
:1017300043EB030515F5001F12D8012841EB010CFE
:101740001CF5001F0CD80ED14FEAD17C15F5001FF7
:101750000CEB4C0C0CF1020C08BF4CEBD37C04E0FE
:101760004FF0080C01E04FEAD37C0CEB4C0526FA55
:1017700005F606F00706B6F1040C06D20EEB860C51
:10178000BDE870404CF0010C6047DFE80CF0090B3D
:1017900002024FF000414FF00000A1F5002170BDA2
:1017A00019461046012851EB010418BFD4F5001466
:1017B00084BF002001F0004170BD0808A0F50011B1
:1017C0004FEA3101704700002DE9F04101F5801C1E
:1017D000BCF5001FC0F2A9804FEA115C21EA0C5150
:1017E0000CF1FD0C41F480115FEA5C0C0CF5C07C3F
:1017F00001D34000494130A4890241EA9051870257
:101800008E0E0A0CA45D04FB04F602FB06F6C6F17C
:101810004046A4FB0662F60D46EA422606FB06F4A5
:10182000A4FB01235242C3F1404338BF5B1EA6FB19
:1018300002420024E6FB0324D20B42EA4446A6FB04
:101840000623A1FB02E2A3FB07E4E3FB614264423F
:10185000C2F1404E38BFAEF1010EA6FB04234FF09B
:101860000002E6FB0E32A2FB03463400E2FB626498
:10187000A1FB06E6A4FB07E8E4FB61687642C8F139
:10188000405838BFA8F10108A2FB06E4A3FB08E515
:10189000E2FB6854A1FB05E6A7FB04E8E1FB6486D4
:1018A00018F1200556F10006A809A8F11B08B10996
:1018B00008F03F08B8F10A0F40EA86601CD901EB36
:1018C0000C51BDE8F08100BFFCF5EEE8E2DDD8D3B5
:1018D000CFCBC7C3C0BDB9B6B4B1AEACA9A7A5A3A1
:1018E000A19F9D9B9A9896959392908F8D8C8B89B2
:1018F0008887868584838281A0FB006800FB01F2D3
:1019000008EB4208B8EB872807D5341858EB0104D8
:10191000D5D5401C51F10001D1E7341A78EB010410
:10192000CDD4401E71F10001C9E75FEA4C0C5FEABB
:101930009C5C0DD105D34FF0000001F00041BDE8E3
:10194000F081BDE8F04170B5FFF7E9FE6DDBFFBE49
:10195000BDE8F0414FF00000004970470000F87FFB
:1019600043004FEAD30C4FEA3C0C43401FBF4007F3
:101970000CF1605113F0FE4F70471CF0006F03D163
:1019800000200CF0004170470CF0004343EA507017
:1019900010B540EACC0000F00EF800BF0000009245
:1019A0004FEA0001FFF709BF4FF000414FF0000080
:1019B000A1F5002170470EF1020E2EF0030E5EF825
:1019C000044B244204D44FEA4102B2F17F4F11D8B4
:1019D0004FEA4003B3F17F4F0CD80ED14FEAD07CD1
:1019E000B2F17F4F0CEB4C0C0CF1020C08BF4CEB2E
:1019F000D17C04E04FF0080C01E04FEAD17C0CEB05
:101A00004C0324FA03F404F00704B4F1040C06D2E6
:101A10000EEB840CBDE810404CF0010C6047DFE891
:101A20000CF0070802024FF00040A0F5800010BD46
:101A30000846420018BFD2F1807288BF00F0004013
:101A400010BD4FF04070E1EE100A7047FF2141EAEF
:101A5000D050C00570473A535444494E003A53544D
:101A6000444F5554003A5354444552520030313299
:101A7000333435363738394142434445464030588F
:101A8000003031323334353637383961626364655A
:101A9000664030780000000054686520616464721C
:101AA0006573732F76616C7565206F66206D617844
:101AB0005F75696E7433325F742061726520726580
:101AC00073706563746976656C7920307825702051
:101AD000616E642025752E0A00000000FC1A0000CB
:101AE000000000201C000000FC030000181B000088
:101AF0001C0000207C110000180400000000000001
:101B00000000000040787D0100000000000000009F
:081B10000000000000000000CD
:04000005000003C133
:00000001FF
