:020000040800F2
:10000000080400209D0100087B0C0008CD0B0008AF
:10001000790C000809020008B50D00080000000076
:100020000000000000000000000000001D0D00089E
:100030000B020008000000009D0C00081F0D0008C6
:10004000B7010008B7010008B7010008B7010008B0
:10005000B7010008B7010008B7010008B7010008A0
:10006000B7010008B7010008B7010008B701000890
:10007000B7010008B7010008B7010008B701000880
:10008000B7010008B7010008B7010008B701000870
:10009000B7010008B7010008B7010008B701000860
:1000A000B7010008B7010008B7010008B701000850
:1000B000B7010008B7010008B7010008B701000840
:1000C000B7010008B7010008B7010008B701000830
:1000D000B7010008B7010008B7010008B701000820
:1000E000B7010008B7010008B7010008B701000810
:1000F000B7010008B7010008B7010008B701000800
:10010000B7010008B7010008B7010008B7010008EF
:10011000B7010008B7010008B7010008B7010008DF
:10012000B7010008B7010008B7010008B7010008CF
:10013000B7010008B7010008B7010008B7010008BF
:10014000B7010008B7010008B7010008B7010008AF
:10015000B7010008B7010008B7010008B70100089F
:10016000B7010008B7010008B7010008B70100088F
:10017000B7010008B7010008B7010008000000003F
:10018000B7010008B7010008DFF80CD000F02AF82A
:1001900000480047D50D00080804002006488047A5
:1001A00006480047FEE7FEE7FEE7FEE7FEE7FEE75C
:1001B000FEE7FEE7FEE7FEE7710D00088901000893
:1001C000D2B201E000F8012B491EFBD27047002299
:1001D000F6E710B513460A4604461946FFF7F0FF46
:1001E000204610BD064C074D06E0E06840F00103D4
:1001F00094E8070098471034AC42F6D3FFF7C8FFE5
:100200001C0F00083C0F0008FEE7704770B504465D
:1002100000F0FEF80546601C00D0641C00F0F8F801
:10022000401BA042FAD370BD2DE9F84FDFF898B11A
:1002300000234FF0010C4FF0030A4FF00F090BF1B0
:10024000040EB9E00CFA03F4224070D04D68022D80
:1002500001D0122D0ED1DD0800EB8508D8F8205012
:100260005E07F70E09FA07F6B5430E69BE402E4346
:10027000C8F8206007685E0091F804800AFA06F565
:1002800008F00308AF4308FA06F848EA0708C0F880
:1002900000804F68012F05D0022F03D0112F01D00D
:1002A000122F13D1D0F80880CF6828EA0508B7408C
:1002B00047EA08078760D0F804800F7928EA040825
:1002C000C7F300179F4047EA08074760D1F804804A
:1002D0006FEA0807BF0706D1C76AA743C8F3C0047F
:1002E0009C403C43C462C468AC438D68B540254320
:1002F000C5604C68E4005ED5344C256E45F00105C0
:100300002566246E23F0030504F001040094304CAC
:100310002E19B4689D072F0F09FA07F5AC43B0F109
:10032000904F05D02B4DA84204D101251CE042E09E
:10033000002519E0284DA84201D1022514E0274DDF
:10034000A84201D103250FE0254DA84201D1042583
:100350000AE0244DA84201D1052505E0224DA8421E
:1003600001D1062500E00725BD402543B560DBF837
:1003700000405D464E689443F60300D514432C605C
:10038000DEF8004075464E689443B60300D514432A
:100390002C600D4D08352C684E689443F60200D54C
:1003A00014432C60084D0C352C684E689443B602FB
:1003B00000D514432C605B1C0A6832FA03F57FF405
:1003C00041AF00F013B800000004014000100240EB
:1003D000000001400004004800080048000C0048EC
:1003E00000100048001400480018004818BCBDE880
:1003F000E08F0069084000D00120704742694A4000
:10040000426170470AB181617047816270470000A4
:1004100001480068704700000000002002480168A1
:10042000491C0160704700000000002010B5002446
:10043000032000F059F8002000F008F808B101246A
:1004400001E000F01BF8204610BD000070B5054625
:1004500009484FF47A7100240068B0FBF1F000F015
:10046000A1FB08B1012404E000222946501E00F03F
:100470001BF8204670BD000004000020094808B5A4
:10048000016E41F001010166016E01F00101009170
:10049000816D41F080518165806D00F08050009049
:1004A00008BD000000100240F0B40E4B1B680C4663
:1004B000C3F30223C3F10705042D00D90425191D38
:1004C000072901D2002300E0DB1E012606FA05F110
:1004D000491E214099409E40761E16403143F0BC93
:1004E00000F0CCBB0CED00E0064900F00702086804
:1004F0004FF6FF03184040EA0220034A1043086009
:10050000704700000CED00E00000FA051649B0F558
:10051000007F0868C0F3412009D0022805D0086890
:1005200020F4C06040F4806008600020704701281B
:10053000FBD0086820F4C06040F4007008600B48ED
:100540003222006850430A4AB0FBF2F0401C00E03F
:10055000401E4A69520501D50028F9D14869400575
:10056000E3D5032070470000007000400400002025
:1005700040420F000248006800F4C060704700006D
:10058000007000402DE9F0470F46050058D03F4E5F
:10059000306800F00700B84209D2306820F0070048
:1005A00038433060306800F00700B84248D12878FE
:1005B000374CC0072CD06868032811D0022812D00D
:1005C000216898B1490500293ADAA16821F00301B0
:1005D0000143A160FFF71CFF804641F2883910E01B
:1005E00021688901EFE721688903ECE78907EAE7D9
:1005F000FFF70EFFA0EB0801494502D90320BDE833
:10060000F087A068696800F00C00B0EB810FEFD1B3
:100610002878800705D5A068A96820F0F000084375
:10062000A060306800F00700B8420BD9306820F0B5
:10063000070038433060306800F00700B84201D04E
:100640000120DCE72878400705D5A068E96820F498
:10065000E0600843A0602878000706D5A0682969F3
:1006600020F4605040EAC100A06000F017F8A168D3
:10067000084AC1F30311515C01F01F01C84006494B
:100680000860BDE8F0470020FFF7E0BE0020024010
:1006900000100240DC0E00080400002070B525495F
:1006A000002318468A68CC6812F00C0204F0030696
:1006B000214C4FEA640509D00C2A05D0042A26D023
:1006C000082A00D1284670BD012E10D10B681B07E7
:1006D00004D4D1F89430C3F3032302E00B68C3F3CE
:1006E0000313164E56F823307AB10C2AEBD1C868A2
:1006F00000F00302C868C0F30210401C022A08D0B0
:10070000032A09D0B3FBF0F008E0184670BD20467C
:1007100070BDB4FBF0F001E0B5FBF0F0CA68C96849
:10072000C2F306225043C1F34161491C4900B0FBAA
:10073000F1F070BD001002400024F400EC0E00083F
:100740002DE9F84305007CD0FD4CA06800F00C06B4
:10075000E06800F003072878C00661D576B10C2E5A
:1007600001D1012F0AD0A8690028206878D040F074
:1007700001002060FFF74CFE804659E020688007AA
:1007800002D5A8690028DED0286A2168090703D5A8
:10079000216801F0F00104E0D4F89410F02202EA9C
:1007A0001111884215D900F07BFA002849D1206840
:1007B00040F0080020602068296A20F0F00008431B
:1007C00020606068E96920F47F4040EA01206060B1
:1007D00015E0206840F0080020602068296A20F0B9
:1007E000F000084320606068E96920F47F4040EA37
:1007F00001206060286A00F053FA0028D6D1FFF784
:100800004DFFA168CF4AC1F30311515C01F01F01F4
:10081000C840CD4908600020FFF718FE00287DD1B0
:100820002FE000BFFFF7F4FDA0EB0800022876D808
:1008300020688007F6D5206840F008002060206816
:1008400001E0BBE00CE0296A20F0F00008432060E2
:100850006068E96920F47F4040EA0120606010E0B0
:1008600020F001002060FFF7D3FD804606E000BFC6
:10087000FFF7CEFDA0EB08000228D8D8206880073B
:10088000F6D42878C00740D0082E18D00C2E01D1FD
:10089000032F14D06868B0F5803F17D0B0F5A02FB3
:1008A000206817D020F480302060206820F4802059
:1008B00020606868E0B1FFF7ABFD804614E0206877
:1008C000800322D56868002878D01EE0206840F4B4
:1008D0008030EDE740F480202060F7E7FFF798FDD7
:1008E000A0EB08006428A2D820688003F6D50CE0AD
:1008F000FFF78EFD804605E0FFF78AFDA0EB0800BC
:10090000642894D820688003F6D4287880073BD5E3
:10091000042E11D00C2E04D1022F01E036E1A1E00B
:100920000AD0E868002820681ED040F4807020605B
:10093000FFF76EFD07460CE0206840050CD5E8681F
:100940000028C1D008E000BFFFF762FDC01B0228ED
:1009500093D820684005F7D56068297C20F0F850CE
:1009600040EA016060600FE020F480702060FFF7D3
:100970004FFD074605E000BFFFF74AFDC01B0228F8
:1009800070D820684005F7D42878000729D5686911
:100990000028D4F8940012D040F00100C4F894006C
:1009A000FFF736FD074604E0FFF732FDC01B0228C3
:1009B00058D8D4F894008007F6D512E0EDE020F086
:1009C0000100C4F89400FFF723FD074605E000BFCF
:1009D000FFF71EFDC01B022844D8D4F894008007FE
:1009E000F6D42878400768D5A06D0027C00008D449
:1009F000A06D40F08050A065A06D012700F08050F0
:100A0000009052480168C90512D40168814641F43A
:100A100080710160FFF7FCFC804605E0FFF7F8FC01
:100A2000A0EB080002281DD8D9F80000C005F5D5B4
:100A3000A868012817D00528D4F8900018D020F015
:100A40000100C4F89000D4F8900020F0040000BF2A
:100A5000C4F89000A86841F28839D0B1FFF7D8FCFB
:100A6000804611E06BE0D4F8900040F00100EFE721
:100A700040F00400C4F89000F5E700BFFFF7C8FCA1
:100A8000A0EB080149455AD8D4F890008007F5D565
:100A90000EE0FFF7BDFC804606E000BFFFF7B8FCA4
:100AA000A0EB0801494570D8D4F890008007F5D430
:100AB0001FB1A06D20F08050A065A86AF0B30C2E85
:100AC0006BD00228206820F08070206004D020685D
:100AD00010F0205F47D04AE0FFF79AFC064604E09A
:100AE000FFF796FC801B02284FD820688001F7D4BE
:100AF000286BE96A000110380843696BAA6B090288
:100B0000120941EA42410843A98F114A490802EB00
:100B10004151084395F840104908120102EB416128
:100B20000843E060206840F080702060E06840F09A
:100B30008070E060FFF76CFC054610E02BE024E0DD
:100B400000100240DC0E000804000020007000408D
:100B50000000E0FFFFF75CFC401B022815D820686E
:100B60008001F7D517E0E06820F00300E060E0685E
:100B70000B490840E060FFF74BFC054608E000BF6A
:100B8000FFF746FC401B022802D90320BDE8F8838A
:100B900020688001F4D40020F8E70120F6E7000087
:100BA000FFFFEEFE10B5401EB0F1807F01D30120A3
:100BB00010BD4FF0E02460610F21601700F05EF877
:100BC0000020A06107202061002010BDFEE700008A
:100BD0002DE9F04186B014216846FFF7F8FA234862
:100BE000C16C41F00101C164C16C01F001010591CA
:100BF000C16C41F00201C164C16C01F002010591B8
:100C0000C16C41F01001C164C06C194F00F01000BC
:100C10000590012204213846FFF7F4FB0122DFF89A
:100C20005480160231464046FFF7ECFB2F2000248B
:100C3000CDE900040220029069464FF09040FFF792
:100C4000F3FA042000900125CDE9015469463846A5
:100C50000394FFF7E9FA0096CDE90154694640464E
:100C60000394FFF7E1FA06B0BDE8F08100100240FE
:100C70000004004800100048FEE770470907090E0D
:100C8000002806DA00F00F0000F1E02080F8141DC3
:100C9000704700F1E02080F80014704770470000B2
:100CA000F8B51C4D06460024A86DC00002D5FFF71C
:100CB00061FC0DE0A86D40F08050A865A86D00F0C3
:100CC00080500090FFF756FCA96D21F08051A96576
:100CD000B0F5007F04D0802E07D94FF003040AE05E
:100CE000802E08D9A02E01D804E001D1022402E010
:100CF000702E00D101240848016821F0070121432A
:100D00000160006800F00700A04201D00120F8BD9A
:100D10000020F8BD00100240002002407047FFF79D
:100D20007DBB10B596B044216846FFF750FA1421F8
:100D300011A8FFF74CFA1020009000240120CDE903
:100D40000604602008900A946846FFF7F9FC0F201B
:100D5000CDE9110413941494002111A81594FFF700
:100D600011FC4FF40070FFF7D1FB16B010BD00006E
:100D70000D48016841F4700101600C48016841F0C0
:100D800001010160002181600268094B1A40026084
:100D90008214C260026822F48022026081610249EA
:100DA000C00380390860704788ED00E00010024001
:100DB000FFFFF6EAFEE702E008C8121F08C1002A9A
:100DC000FAD170477047002001E001C1121F002ACC
:100DD000FBD17047FFF72AFBFFF7A3FFFFF7F8FEF1
:100DE0003C4FDFF8F4804FF4FA694FF090454FF430
:100DF000807602212846FFF7FCFA30B10022314606
:100E00003846FFF7FFFA01220AE004212846FFF7DF
:100E1000F0FA58B1012231463846FFF7F3FA0022C2
:100E200004214046FFF7EEFA48464FE008212846E5
:100E3000FFF7DFFA30B1012204214046FFF7E2FA62
:100E400001220AE020212846FFF7D3FA40B1002210
:100E500004214046FFF7D6FA002231463846E1E742
:100E600001212846FFF7C5FA4FF00102C0B1042165
:100E70004046FFF7C7FA012231463846FFF7C2FA6B
:100E80000024C820FFF7C2F931463846FFF7B6FA0A
:100E900004214046FFF7B2FA641C0A2CF1DBA8E7F4
:100EA00031463846FFF7AEFA002204214446404658
:100EB000FFF7A8FA6420FFF7A9F931463846FFF793
:100EC0009DFA04212046FFF799FA6420FFF79EF966
:100ED0008FE70000001000480004004800000000F8
:100EE000000000000102030406070809A0860100B3
:100EF000400D0300801A060000350C0040420F0030
:100F000080841E0000093D0000127A000024F400D5
:100F100000366E010048E801006CDC023C0F00085E
:100F20000000002008000000B60D0008440F000873
:100F30000800002000040000C60D000800000000AA
:040F400000093D0067
:040000050800018965
:00000001FF
