:020000040800F2
:10000000880400209D010008771300088912000869
:1000100075130008F9020008211B00080000000009
:100020000000000000000000000000004D16000865
:10003000FB02000800000000991300084F1600089A
:10004000B7010008B7010008B7010008B7010008B0
:10005000B7010008B7010008B7010008B7010008A0
:10006000B7010008B7010008B7010008B701000890
:10007000B7010008B7010008B7010008B701000880
:10008000B7010008B7010008B7010008B701000870
:10009000B7010008B7010008B7010008B701000860
:1000A000B7010008B7010008B7010008B701000850
:1000B000B7010008B7010008B7010008B701000840
:1000C000B7010008B7010008B7010008B701000830
:1000D000B7010008B7010008B7010008B701000820
:1000E000B7010008B7010008B7010008B701000810
:1000F000B7010008B7010008B7010008B701000800
:10010000B7010008B7010008B7010008B7010008EF
:10011000B7010008B7010008B7010008B7010008DF
:10012000B7010008B7010008B7010008B7010008CF
:10013000B7010008B7010008B7010008B7010008BF
:10014000B7010008B7010008B7010008B7010008AF
:10015000B7010008B7010008B7010008B70100089F
:10016000B7010008B7010008B7010008B70100088F
:10017000B7010008B7010008B7010008000000003F
:10018000B7010008B7010008DFF80CD000F094F8C0
:1001900000480047C51E0008880400200648804724
:1001A00006480047FEE7FEE7FEE7FEE7FEE7FEE75C
:1001B000FEE7FEE7FEE7FEE7B51600088901000846
:1001C0002DE9F05F0546002092469B46884606468C
:1001D000814640241BE0284641464746224600F01F
:1001E0005AF853465A46C01A914110D31146184640
:1001F000224600F041F82D1A67EB01084F462246CF
:100200000120002100F038F817EB00094E41201EB4
:10021000A4F10104DFDC484631462A46434600F09B
:1002200000B830BCBDE8C09FD2B201E000F8012B9D
:10023000491EFBD270470022F6E710B513460A4666
:1002400004461946FFF7F0FF204610BD30B50B46B7
:10025000014600202022012409E021FA02F59D42F6
:1002600005D303FA02F5491B04FA02F52844151ECA
:10027000A2F10102F1DC30BD202A04DB203A00FAB1
:1002800002F1002070479140C2F1200320FA03F3ED
:10029000194390407047202A04DB203A21FA02F0EB
:1002A0000021704721FA02F3D040C2F120029140B0
:1002B0000843194670470000064C074D06E0E06809
:1002C00040F0010394E8070098471034AC42F6D39D
:1002D000FFF75EFFD4210008F4210008026801EA5C
:1002E00002007047026842EA010202607047026839
:1002F00022EA010202607047FEE7704770B50446CB
:1003000000F0F4F80546601C00D0641C00F0EEF824
:10031000401BA042FAD370BD2DE9F84FDFF898B129
:1003200000234FF0010C4FF0030A4FF00F090BF1BF
:10033000040EB9E00CFA03F4224070D04D68022D8F
:1003400001D0122D0ED1DD0800EB8508D8F8205021
:100350005E07F70E09FA07F6B5430E69BE402E4355
:10036000C8F8206007685E0091F804800AFA06F574
:1003700008F00308AF4308FA06F848EA0708C0F88F
:1003800000804F68012F05D0022F03D0112F01D01C
:10039000122F13D1D0F80880CF6828EA0508B7409B
:1003A00047EA08078760D0F804800F7928EA040834
:1003B000C7F300179F4047EA08074760D1F8048059
:1003C0006FEA0807BF0706D1C76AA743C8F3C0048E
:1003D0009C403C43C462C468AC438D68B54025432F
:1003E000C5604C68E4005ED5344C256E45F00105CF
:1003F0002566246E23F0030504F001040094304CBC
:100400002E19B4689D072F0F09FA07F5AC43B0F118
:10041000904F05D02B4DA84204D101251CE042E0AD
:10042000002519E0284DA84201D1022514E0274DEE
:10043000A84201D103250FE0254DA84201D1042592
:100440000AE0244DA84201D1052505E0224DA8422D
:1004500001D1062500E00725BD402543B560DBF846
:1004600000405D464E689443F60300D514432C606B
:10047000DEF8004075464E689443B60300D5144339
:100480002C600D4D08352C684E689443F60200D55B
:1004900014432C60084D0C352C684E689443B6020A
:1004A00000D514432C605B1C0A6832FA03F57FF414
:1004B00041AF00F013B800000004014000100240FA
:1004C000000001400004004800080048000C0048FB
:1004D00000100048001400480018004818BCBDE88F
:1004E000E08F0AB1816170478162704701480068FE
:1004F000704700000000002002480168491C0160AC
:10050000704700000000002010B5032000F052F8F2
:10051000002000F005F800F017F8002010BD0000E2
:1005200010B5044607484FF47A710068B0FBF1F04B
:1005300000F0D6FD00222146501E00F01BF80020DE
:1005400010BD000004000020094808B5016E41F00C
:1005500001010166016E01F001010091816D41F020
:1005600080518165806D00F08050009008BD0000D2
:1005700000100240F0B40E4B1B680C46C3F302237C
:10058000C3F10705042D00D90425191D072901D23F
:10059000002300E0DB1E012606FA05F1491E21407A
:1005A00099409E40761E16403143F0BC00F0E4BEF8
:1005B0000CED00E0064900F0070208684FF6FF0363
:1005C000184040EA0220034A1043086070470000C8
:1005D0000CED00E00000FA051549B0F5007F086851
:1005E000C0F3412009D0022805D0086820F4C0607B
:1005F00040F480600860002070470128FBD0086844
:1006000020F4C06040F4007008600A480A4A00689C
:10061000B0FBF2F03222504300E0401E10B14A69B4
:100620005205FAD448694005E5D50320704700001B
:10063000007000400400002040420F0002480068A3
:1006400000F4C06070470000007000402DE9F84FD2
:10065000044600270088E54D3E46010504F1200BC5
:100660001DD5606E78B1B0F5800F11D0B0F5000FD8
:1006700004D0B0F5400F22D001270FE0E86840F425
:100680008030E8601BE00021201D00F087FE03E0C1
:100690000021584600F018FF070010D03E46208881
:1006A000C00426D5A06EC0B1B0F1807F1AD0B0F1E1
:1006B000007F0DD0B0F1407F19D0012718E0D5F8A8
:1006C0008800616E20F440000843C5F88800E6E722
:1006D000E86840F48030E86009E00021201D00F067
:1006E0005DFE03E00021584600F0EEFE0746F7B13C
:1006F0003E46206880033AD5A86D4FF00008C00040
:1007000009D4A86D40F08050A865A86D4FF001088D
:1007100000F080500090DFF8D8A2DAF8001041F421
:100720008071CAF80010FFF7E1FE814610E0D5F8AD
:100730008800A16E20F040700843C5F88800D8E713
:10074000FFF7D4FEA0EB0900022801D9032705E03A
:10075000DAF80000C005F3D5002F7CD04FEA070679
:10076000B8F1000F03D0A86D20F08050A865207864
:10077000C00707D0D5F88800A16B20F0030008431C
:10078000C5F888002078800707D5D5F88800E16B88
:1007900020F00C000843C5F888002078400707D5F2
:1007A000D5F88800216C20F030000843C5F8880097
:1007B0002078000707D5D5F88800616C20F0C000CC
:1007C0000843C5F888002078C00607D5D5F888000A
:1007D000A16C20F440700843C5F88800207880069A
:1007E00007D5D5F88800E16C20F440600843C5F8CF
:1007F00088002088800507D5D5F88800E16D20F4B1
:1008000040200843C5F888002088400507D5D5F862
:100810008800216E20F440100843C5F88800207835
:10082000400607D5D5F88800216D20F440500843D4
:10083000C5F888002078000607D5D5F88800616DD6
:1008400020F440400843C5F888002088C00509D539
:10085000D5F8880000E01CE0A16D20F4403008438A
:10086000C5F8880020884FF0006780044FF080684A
:100870004FD5D5F88800E16E20F040600843C5F8F8
:100880008800E06EB8423CD1E86840F48010E8602F
:100890003FE0D5F8900010F4407015D0D4F88410E3
:1008A000814211D0D5F89000D5F8901020F4407016
:1008B00041F48031C5F89010D5F8901021F48031C2
:1008C000C5F89010C5F89000C00710D0FFF70EFED5
:1008D000074641F2883906E0FFF708FEC11B49458B
:1008E00001D903263CE7D5F890008007F4D5D5F868
:1008F0009000D4F8841020F440700843C5F89000AC
:100900002EE7404505D10121201D00F047FD00B133
:1009100006462068000317D5D5F88800216F20F01F
:1009200040600843C5F88800206FB84204D1E868E9
:1009300040F48010E86007E0404505D10121201D0A
:1009400000F02CFD00B106462068400317D5D5F80D
:100950008800616F20F040600843C5F88800606F30
:10096000B84204D1E86840F48010E86007E04045F0
:1009700005D10121201D00F011FD00B1064620889F
:1009800040041AD5D5F88800A16F20F040500843E4
:10099000C5F88800A06FB0F1805F03D0B0F1005FB0
:1009A00005D00AE00221201D00F0F8FC03E002213E
:1009B000584600F089FD00B106462088000407D59E
:1009C000D5F88800E16F20F080400843C5F8880022
:1009D0002068C00307D555F8880FD4F8801020F0A0
:1009E000004008432860304600F004B80010024080
:1009F0000070004018BCBDE8E08F00002DE9F04712
:100A0000DFF8608105460E46D8F8000000F00700C8
:100A1000B0420CD2D8F8001021F007013143C8F8D9
:100A20000010D8F8000000F00700B04275D1287817
:100A30004D4CC00757D06868032818D0022819D039
:100A40002168D0B14905002967DAA16821F00301C6
:100A50000143A160FFF74AFD6968074641F288300B
:100A6000032913D002291FD0814651B336E02168F3
:100A70008901E8E721688903E5E78907E3E700BF23
:100A8000FFF734FDC11B494501D924E08146A06828
:100A9000C0F381000328F3D125E000BFFFF726FD56
:100AA000C11B494501D916E08146A068C0F3810009
:100AB0000228F3D117E000BFFFF718FDC11B49451D
:100AC00009D8A06810F00C0FF6D10CE0FFF70EFD6E
:100AD000C11B494502D90320BDE8F087A068C0F3D7
:100AE00081000128F2D12878800705D5A068A9687F
:100AF00020F0F0000843A060D8F80010404601F054
:100B00000701B1420BD9016821F0070131430160AF
:100B1000006800F00700B04201D00120DCE728782F
:100B2000400705D5A068E96820F4E0600843A060AC
:100B30002878000706D5A068296920F4605040EAAB
:100B4000C100A06000F036F8A168084AC1F30311A3
:100B5000515CC840064908600020FFF7E1FC002016
:100B6000BAE7000000200240001002408420000884
:100B7000040000200448054900688968044AC1F35C
:100B80000221515CC8407047040000200010024060
:100B9000C42000080448054900688968044AC1F374
:100BA000C221515CC8407047040000200010024080
:100BB000C420000830B52D49002318468A682C4C03
:100BC00012F00C0F4FEA640514D08A68C2F3810258
:100BD000032A04D1CA6802F00302012A0AD08A68F3
:100BE000C2F38102012A19D08A68C2F38102022A63
:100BF00016D016E00A68120704D4D1F89420C2F384
:100C0000032202E00A68C2F303121A4B53F822309F
:100C10008A6812F00C0F04D1184602E0204600E06A
:100C200028468A68C2F38102032A1DD1C868CA68AF
:100C300000F00300C2F30212521C022804D0032861
:100C400005D0B3FBF2F004E0B4FBF2F001E0B5FB39
:100C5000F2F0CA68C968C2F306225043C1F3416189
:100C6000491C4900B0FBF1F030BD0000001002400B
:100C70000024F400942000082DE9F843044600788D
:100C8000FE4DC0065DD5A86810F00C0F0AD0A06913
:100C90000028286871D040F001002860FFF726FC8A
:100CA000064654E02868800702D5A06900287DD058
:100CB000216A2868000703D5286800F0F00004E0E6
:100CC000D5F89400F02202EA1010814216D90846A5
:100CD00000F07EFC002869D1286840F008002860F8
:100CE0002868216A20F0F000084328606868E169FC
:100CF00020F47F4040EA0120686015E0286840F059
:100D0000080028602868216A20F0F0000843286065
:100D10006868E16920F47F4040EA01206860206A49
:100D200000F056FC0028D6D1FFF744FFA968D44A4A
:100D3000C1F30311515CC840D24908600020FFF79D
:100D4000EFFB29E0FFF7D2FB801B02287ED8286842
:100D50008007F7D5286840F0080028602868216AD5
:100D600020F0F000084328606868E16920F47F40C3
:100D700040EA012068600FE0FFE720F001002860F2
:100D8000FFF7B4FB064604E0FFF7B0FB801B022828
:100D9000DCD828688007F7D42078C0074AD0A86834
:100DA000C0F3810002281FD0A86800E098E0C0F3DB
:100DB0008100032803D1E868C043800714D060682D
:100DC000B0F5803F17D0B0F5A02F286817D020F4D9
:100DD00080302860286820F4802028606068E0B1B6
:100DE000FFF784FB064614E02868800322D560687C
:100DF000002875D01EE0286840F48030EDE740F40C
:100E000080202860F7E700BFFFF770FB801B642895
:100E10009CD828688003F7D50CE0FFF767FB0646EF
:100E200005E000BFFFF762FB801B64288ED82868AE
:100E30008003F7D42078800742D5A868C0F38100EA
:100E4000012816D0A868C0F3810000E0A9E00328BB
:100E500004D1E86800F0030002280AD0E068002806
:100E600028681DD040F480702860FFF73FFB0646DD
:100E70000BE0286840050BD5E0680028B9D007E0F2
:100E8000FFF734FB801B0228C2D828684005F7D53D
:100E90006868217C20F0F85040EA016068600FE04B
:100EA00020F480702860FFF721FB064605E000BFB4
:100EB000FFF71CFB801B022873D828684005F7D475
:100EC0002078000729D560690028D5F8940013D050
:100ED00040F00100C5F89400FFF708FB064606E065
:100EE000FBE000BFFFF702FB801B022859D8D5F8B2
:100EF00094008007F6D510E020F00100C5F89400BA
:100F0000FFF7F4FA064604E0FFF7F0FA801B022828
:100F100047D8D5F894008007F6D42078400763D5E9
:100F2000A86D0026C00008D4A86D40F08050A865C8
:100F3000A86D012600F08050009053480168C90553
:100F400011D40168804641F480710160FFF7CEFA48
:100F5000074604E0FFF7CAFAC01B022821D8D8F8D8
:100F60000000C005F6D5A068012815D00528D5F8E1
:100F7000900017D020F00100C5F89000D5F890003F
:100F800020F00400C5F89000A06841F28838C8B18C
:100F9000FFF7ACFA074610E0D5F8900040F00100EA
:100FA000F0E777E040F00400C5F89000F4E700BFF8
:100FB000FFF79CFAC11B41456CD8D5F8900080071B
:100FC000F6D50CE0FFF792FA074604E0FFF78EFA39
:100FD000C11B414579D8D5F890008007F6D41EB1E1
:100FE000A86D20F08050A865A06AE0B3A968C1F39D
:100FF0008101032972D00228286820F080702860BF
:1010000011D02868000106D42868800003D4E8685D
:1010100020F00300E860E8681C490840E860FFF73A
:1010200065FA044654E0FFF761FA064605E000BFA2
:10103000FFF75CFA801B022847D828688001F7D4A4
:10104000206BE16A000110380843616BA26B090252
:10105000120941EA42410843A18F0D4A490802EBB7
:101060004151084300E036E094F84010490812016D
:1010700002EB41610843E86028680CE00010024080
:10108000842000080400002000700040FFFFEEFEF6
:101090000000E0FF19E040F080702860E86840F050
:1010A0008070E860FFF722FA044604E0FFF71EFABA
:1010B000001B022809D828688001F7D50BE000BF83
:1010C000FFF714FA001B022802D90320BDE8F883B9
:1010D00028688001F4D40020F8E7FFE70120F5E755
:1010E00010B5401EB0F1807F01D3012010BD4FF03C
:1010F000E02460610F21601700F03EF90020A0613C
:1011000007202061002010BD10B5040003D094F822
:10111000710010B107E0012010BD002084F87000BC
:10112000204600F027F8242084F871002068016828
:1011300021F001010160204600F070FB0128EBD096
:10114000606A10B1204600F0D7FA2068416821F4A7
:10115000904141602068816821F02A018160206807
:10116000016841F0010101602046BDE8104000F037
:1011700027BB000010B586B0044614216846FFF76F
:101180005AF81249206888421ED11148816D41F4F5
:1011900000318165816D01F400310591C16C41F030
:1011A0000801C164C06C694600F008000590602029
:1011B000009002200190012002900320039007205C
:1011C00004900448FFF7A8F806B010BD00440040A2
:1011D00000100240000C00482DE9F843044690F846
:1011E00071001F4616460D4620284BD1C5B1BEB131
:1011F00094F87000012845D0012084F870004FF069
:101200000008C4F87480212084F87100FFF76EF99B
:10121000A4F850608146A4F852604FF4805615E05F
:101220000120BDE8F8838021204600F047FCD8B9B2
:10123000A068B04201D12069C0B115F8010B216846
:101240000885B4F85200401EA4F85200B4F85200C9
:101250004B464FF0000200970028E4D14FF04001C8
:10126000204600F02BFC30B10320DAE735F8020B02
:10127000C0F30800E3E7202084F8710084F8708050
:101280000020CEE70220CCE7FEE700002DE9F04188
:1012900086B014216846FEF7CEFF2848C16C41F0A5
:1012A0000101C164C16C01F001010591C16C41F003
:1012B0000201C164C16C01F002010591C16C41F0F1
:1012C0001001C164C16C01F010010591C16C41F0C5
:1012D0000801C164C06C1A4F00F00800059000229C
:1012E00004213846FFF7FDF8DFF858804FF4807688
:1012F000002231464046FFF7F4F82F200024CDE9C4
:1013000000040220029069464FF09040FFF704F875
:10131000042000900125CDE9015469463846039424
:10132000FEF7FAFF0096CDE9015469464046039462
:10133000FEF7F2FF06B0BDE8F081000000100240A9
:1013400000040048001000480948084901604FF4B3
:1013500016514160002181600C22C160C0E9041275
:101360008161C16101624162FFF7CEBE004400406D
:101370000C000020FEE770470907090E002806DA76
:1013800000F00F0000F1E02080F8141D704700F11C
:10139000E02080F800147047704700002DE9F0410C
:1013A000444C05468846E0680026810728680DD031
:1013B000E16801F00301814216D1A8B1E0686968D3
:1013C000C0F30210401C88420ED120E0012804D056
:1013D000022805D0032807D108E02168890701E029
:1013E00021684905002907DB01265FE021688903A0
:1013F00002D421684903F5E7E1686A686FF00F03DA
:1014000021F0730103EB021211430143E1602068F4
:1014100020F080602060FFF769F8074605E000BF14
:10142000FFF764F8C01B022837D820680001F7D402
:10143000B8F1000F18D0B8F1010F1ED0287D4FF081
:101440007E41400801EB4060A96840EA0120216923
:10145000194A114008432061206840F080602060F4
:10146000FFF744F807461AE0A868E968000209098E
:1014700040EA41402169114AEBE7288A10494008B7
:1014800001EB4050A96840EA012021690D4AE0E7DC
:10149000FFF72CF8C01B022801D9032606E02068BC
:1014A0000001F5D52069A969084320613046BDE8EF
:1014B000F081000000100240FF80FFF9FF80FDFF77
:1014C0000000E0FFFF809FFF2DE9F0413D4C064604
:1014D0008846E0680025810730680DD0E16801F09A
:1014E0000301814216D1A8B1E0687168C0F302100F
:1014F000401C88420ED120E0012804D0022805D0EB
:10150000032807D108E02168890701E0216849051F
:10151000002907DB012551E02168890302D42168F5
:101520004903F5E7E16872686FF00F0321F073017A
:1015300003EB021211430143E160206820F0805068
:101540002060FEF7D3FF074605E000BFFEF7CEFFA1
:10155000C01B022829D820688000F7D4B8F1000FFA
:1015600015D0307C4FF07E41400801EB4060B168FF
:1015700040EA01206169144A114008436061206813
:1015800040F080502060FEF7B1FF07460FE0B068E2
:10159000F1680002090940EA414061690B4AEBE742
:1015A000FEF7A4FFC01B022801D9032506E020682E
:1015B0008000F5D560697169084360612846BDE81F
:1015C000F081000000100240FF80FFF9FF80FDFF66
:1015D000F8B51C4D06460024A86DC00002D5FFF7E3
:1015E0002DF80DE0A86D40F08050A865A86D00F0C2
:1015F00080500090FFF722F8A96D21F08051A96575
:10160000B0F5007F04D0802E07D94FF003040AE024
:10161000802E08D9A02E01D804E001D1022402E0D6
:10162000702E00D101240848016821F007012143F0
:101630000160006800F00700A04201D00120F8BD61
:101640000020F8BD00100240002002407047FEF765
:1016500053BF10B5B8B0442122A8FEF7ECFD142109
:1016600033A8FEF7E8FD88216846FEF7E4FD102068
:10167000229000240120CDE9280460202A902C9497
:1016800022A8FFF7F9FA0F20CDE9330435943694F8
:10169000002133A83794FFF7B1F902200F9400908E
:1016A0006846FEF7D3FF4FF40070FEF795FF38B0A1
:1016B00010BD00000D48016841F4700101600C4844
:1016C000016841F001010160002181600268094B5D
:1016D0001A4002608214C260026822F48022026012
:1016E00081610249C00380390860704788ED00E0DD
:1016F00000100240FFFFF6EA90F82410C90706D058
:1017000001684A68836A22F400321A434A6090F8FA
:101710002410890706D501684A68C36A22F480321A
:101720001A434A6090F82410490706D501684A68B0
:10173000036B22F480221A434A6090F824100907B0
:1017400006D501684A68436B22F400421A434A6096
:1017500090F82410C90606D501688A68836B22F4C4
:1017600080521A438A6090F82410890606D50168D1
:101770008A68C36B22F400521A438A6090F82410DE
:10178000490611D501684A68036C22F480121A4395
:101790004A60016CB1F5801F06D101684A68436C4C
:1017A00022F4C0021A434A6090F82410090606D5B4
:1017B00001684A68806C22F4002202434A60704744
:1017C000F8B5002604464667FEF790FE05462068F9
:1017D00000686FF07E47000708D52B4600224FF4C3
:1017E00000112046009700F069F960B92068006890
:1017F00040070AD52B4600224FF48001204600976F
:1018000000F05CF908B10320F8BD202084F87100D5
:1018100084F8720084F870600020F8BD2DE9F04172
:101820000446016880682369E669184363691025E6
:10183000002733431843954A0B68954E33400343C2
:101840000B6020684168E36821F44051194341600E
:101850002168A069914201D0236A18438B6823F460
:10186000306303438B608B4B21688B4899420DD1C9
:10187000D0F8880010F0030006D001285AD00228C2
:1018800056D0032859D157E0012556E0834B9942A1
:101890000BD1D0F8880010F00C0047D0042849D0B4
:1018A000082845D00C2848D146E07D4B99420BD101
:1018B000D0F8880010F0300038D010283AD0202816
:1018C00036D0302839D137E0764B99420BD1D0F859
:1018D000880010F0C00029D040282BD0802827D0C5
:1018E000C0282AD128E0704B99420ED1D0F8880048
:1018F00010F440701AD0B0F5807F1BD0B0F5007F97
:1019000016D0B0F5407F18D116E0914215D1D0F82D
:10191000880010F4406009D0B0F5806F0AD0B0F5AF
:10192000006F05D0B0F5406F07D105E0002504E059
:10193000022502E0042500E008255C4B00264FF458
:10194000004091423DD135B1022D07D0042D07D082
:10195000082D10D107E0FFF70DF903E0184602E06B
:10196000FFF728F9A8B3626802EB4201814202D86E
:10197000B0EB023F01D9012775E0DFF834815DB19A
:10198000022D0CD0042D13D0082DF4D150082905B8
:10199000401846F1000105E0FFF7ECF80AE05008B6
:1019A0004449F5E70023FEF70BFCA0F5407156E033
:1019B000FFF700F96268010E030250081818714120
:1019C000F0E7E1694FF6EF7881422FD1092DD2D2AD
:1019D00000E048E0DFE805F00609200523050505DD
:1019E0002600C8E7FFF7C6F801E0FFF7D3F841008B
:1019F000D4F8040001EB5001B1FBF0F080B2A0F18B
:101A000010014145B7D84FF6F0710140C0F34200D4
:101A100001432068C16026E027496068EAE7FFF7D4
:101A2000C9F8E4E74FF480316068E3E7092DA2D2FA
:101A3000DFE805F006091E052205050525009AE7E1
:101A4000FFF798F801E0FFF7A5F80146606801EBA1
:101A5000500100BFB1FBF0F080B2A0F11001414590
:101A600089D82168C860266638466666BDE8F08178
:101A7000606803EB5001EDE7FFF79CF8E5E761686C
:101A800000EB5100B0FBF1F0E6E700000080004001
:101A9000F369FFEF003801400010024000440040AD
:101AA00000480040004C0040005000400024F4007A
:101AB000FFFC0F00000024F40048E8012DE9F0418C
:101AC000984617460E460446069D1DE0681C1BD02E
:101AD0002DB1FEF70BFDA0EB0800A84214D9206839
:101AE000016821F4D07101602068816821F0010152
:101AF0008160202084F8710084F87200002084F84E
:101B000070000320BDE8F0812068C06936EA00005B
:101B100004D00020B842D9D00020F3E70120F9E733
:101B2000FEE700000FB4054B10B503A9044A029864
:101B300000F018F810BC5DF814FB0000AD1E0008A2
:101B40000800002002E008C8121F08C1002AFAD1CC
:101B500070477047002001E001C1121F002AFBD12D
:101B6000704700002DE9FF4F8BB0884605460026E0
:101B700006E025280BD0DDE90D1290476D1C761C80
:101B800028780028F5D10FB0304600F063B9002462
:101B9000A146A2460122AE4900E0044315F8013FE8
:101BA000203B02FA03F00842F7D128782A2810D007
:101BB0006FF02F022878A0F13001092915D809EB20
:101BC000890102EB410144F0020400EB01096D1CA4
:101BD000F0E758F8041B5FEA010903D544F4005408
:101BE000C9F1000944F002046D1C28782E2817D191
:101BF00015F8010F44F004042A280ED06FF02F02CC
:101C00002878A0F1300109290AD80AEB8A0102EBF1
:101C1000410100EB010A6D1CF2E758F804AB6D1CA2
:101C200028786C280FD006DC4C2817D068280DD0F7
:101C30006A2814D104E0742810D07A280FD10DE05E
:101C400044F400140AE044F4801401E044F4401425
:101C50006978814202D104F580146D1C6D1C2878CE
:101C6000692865D006DC00288DD0632827D0642839
:101C700006D15DE06E2808D073282AD0752877D069
:101C8000DDE90D129047761CE0E0C4F30250022813
:101C900009D003280DD0D8F8001004280DD00E600C
:101CA00008F10408D2E0D8F80010F217C1E9006288
:101CB000F6E7D8F800100E80F2E70E70F0E718F89B
:101CC000041B8DF8001000208DF80100EB46012068
:101CD00003E058F804BB4FF0FF3061074FF00007F6
:101CE00001D40AE07F1C57450DDA8742FADB1BF866
:101CF00007100029F6D106E07F1C8742FCDB1BF8A9
:101D000007100029F8D1DDE90D23A9EB0700814672
:101D1000214600F0B4F83044C61904E0DDE90D12A4
:101D20001BF8010B90477F1EF8D22146484688E0F9
:101D300058F8040BC4F302514FF00A0B032900D1E9
:101D400000B2042900D140B2002802DA40422D211D
:101D500002E0210505D52B218DF82410012104E096
:101D600006E0E10710D02021F6E708AF089113E064
:101D700058F8040BC4F302514FF00A0B032900D1A9
:101D800080B2042900D1C0B20021EEE75946FEF727
:101D90005DFA303107F8011D0028F7D1ADEB0700DF
:101DA00000F1200B600702D524F4803401E04FF0ED
:101DB000010ADA4502DDAAEB0B0000E000208246B2
:101DC00000EB0B0108980144A9EB01000A90E00325
:101DD00006D4DDE90D2321460A9800F050F80644A8
:101DE0004FF0000908E009A911F80900DDE90D121A
:101DF000904709F10109761C08998945F3DBE00356
:101E00000CD5DDE90D2321460A9800F038F8064488
:101E100004E0DDE90D1230209047761CBAF1000194
:101E2000AAF1010AF5DC05E0DDE90D1217F8010B56
:101E30009047761CBBF10001ABF1010BF4DC0A9872
:101E40002146DDE90D2300F008F806446D1C97E6F5
:101E50000928010030BCBDE8C08F2DE9F0410446DF
:101E600000251E461746880404D405E03946202084
:101E7000B0476D1C641EF9D52846BDE8F0812DE9F8
:101E8000F041044600251E469046C80301D5302780
:101E900000E02027880404D505E041463846B047D5
:101EA0006D1C641EF9D52846BDE8F08113B54FF6C8
:101EB000FF73012269460248FFF78EF900981CBDA6
:101EC0000C000020FEF720FBFFF7C3FBFFF7DEF955
:101ED000FFF73AFA01252C462E466427DFF84081A9
:101EE0004FF48079DFF83CA1DFF83CB100E01CB191
:101EF00029464EA0FFF716FE012D12D0022D2FD03D
:101F0000032D50D0042DF2D11CB15148FFF70AFE29
:101F1000002401214046FEF7E1F9002865D00225A2
:101F200069E01CB14BA0FFF7FDFD002401214046F4
:101F3000FEF7D4F908B1022501244FF004015846F8
:101F400036B1FEF7CFF949465046FEF7D0F905E025
:101F5000FEF7CDF949465046FEF7C4F9384659E038
:101F60001CB14648FFF7DEFD002401214046FEF784
:101F7000B5F908B101250CE002214046FEF7AEF9A3
:101F800008B1032505E004214046FEF7A7F908B192
:101F90000425012404215846FEF7A9F94946504674
:101FA000FEF7A5F9A3E71CB13548FFF7BBFD0024F8
:101FB00001214046FEF792F908B1022505E004210F
:101FC0004046FEF78BF908B1042501244FF00401C7
:101FD000584616B1FEF786F901E0FEF788F9494642
:101FE0005046FEF784F9780014E002214046FEF7DF
:101FF00075F908B1032501244946504616B1FEF78C
:1020000071F901E0FEF773F904215846FEF76FF904
:1020100007EB4700FEF772F986F0010667E700005C
:10202000100000481410004814040048546865204B
:1020300043757272656E7420737461746520697380
:102040002053746174652531642E0A0D0000000070
:10205000CC20000850726573732074686520636536
:102060006E746572206B657920746F20676F2074C1
:102070006F205374617465322E0A0D0064210008CC
:102080001821000800000000000000000102030405
:1020900006070809A0860100400D0300801A06000B
:1020A00000350C0040420F0080841E0000093D00F6
:1020B00000127A000024F40000366E010048E801A6
:1020C000006CDC0200000000010203045072657322
:1020D00073207468652063656E746572206B657922
:1020E00020746F20676F20746F20537461746532A1
:1020F0002E0A0D507265737320746865204C6566F6
:1021000074204B657920746F20676F20537461745D
:1021100065330A0D00000000507265737320746807
:10212000652063656E746572206B657920746F201D
:10213000676F20746F205374617465322E0A0D50DE
:102140007265737320746865205269676874204BE8
:10215000657920746F20676F205374617465340A49
:102160000D0000005072657373207468652063650C
:102170006E746572206B657920746F20676F2074B0
:102180006F205374617465312E0A0D50726573733C
:1021900020746865204C656674204B657920746FE7
:1021A00020676F20746F205374617465332E0A0D9D
:1021B0005072657373207468652052696768742073
:1021C0004B657920746F20676F2053746174653498
:1021D0000A0D0000F4210008000000200C0000009F
:1021E000441B0008002200080C0000207C040000B2
:1021F000541B00080000000000093D000000000022
:040000050800018965
:00000001FF
